:1000000009C016C015C014C013C012C011C010C062
:100010000FC00EC011241FBECFE9CDBF10E0A0E677
:10002000B0E001C01D92A336B107E1F721D0A1C015
:10003000E7CFE7E2F0E0808180628083E6E2F0E0F3
:100040008081836880830895E7E2F0E09081907F6B
:10005000908390818F70892B8083E6E2F0E080812D
:1000600080648083808186FDFDCF85B190E0089516
:10007000AF92BF92CF92DF92FF920F931F93CF93D5
:10008000DF9307E310E0F801808181608083808145
:1000900082608083CEDFF80180818083E8E3F0E036
:1000A0008081846080830F2EF6E3AF2EBB24F02D79
:1000B00000E010E0C8E3D0E00F2EF3E0FF2EF02DBB
:1000C0000F2EFFEFCF2EDD24F02D60916000862FE4
:1000D00090E0AC01440F551F440F551F5093620030
:1000E00040936100F501808182FF04C041155105F4
:1000F000B1F41CC0693018F0888181608883411593
:100100005105A1F09801693018F088818F25888306
:1001100000002F5F3F4F24173507A8F307C0980151
:1001200000002F5F3F4F24173507D0F388818C7F65
:1001300088838F2D89DF809360009601281B310909
:10014000C901880F991F880F991F820F931F880F6D
:10015000991F820F931F95958795009709F4B5CF46
:10016000980100002F5F3F4F2817390708F0ADCFE7
:06017000F8CFF894FFCF68
:00000001FF
