:1000000009C016C015C014C013C012C011C010C062
:100010000FC00EC011241FBECFE9CDBF10E0A0E677
:10002000B0E001C01D92A836B107E1F721D0FBC0B6
:10003000E7CFE7E2F0E0808180628083E6E2F0E0F3
:100040008081836880830895E7E2F0E09081907F6B
:10005000908390818F70892B8083E6E2F0E080812D
:1000600080648083808186FDFDCF85B190E0089516
:100070008F929F92AF92BF92CF92DF92FF920F9397
:100080001F93CF93DF9307E310E0D8018C91816039
:100090008C938C9182608C93CCDFF801808180837B
:1000A000E8E3F0E08081846080830F2EF3E0FF2E90
:1000B000F02D0F2EF6E3CF2EDD24F02D00E010E022
:1000C000C8E3D0E00F2EFAE7AF2EF5E0BF2EF02DFB
:1000D0000F2EFFEF8F2E9924F02D8F2DB5DFFC0111
:1000E000F695FE2FEE27F795E795F0936100E093E4
:1000F0006000CF016AE570E082D0862F972F909341
:100100006700809366002091620030916300820F47
:10011000931F9093630080936200E817F90720F41F
:10012000F0936300E093620080916200909163001D
:10013000BC01660F672F661F770B7195AB01440FEB
:10014000551F440F551F5093650040936400D6011E
:100150008C9182FD19C0B4E0E130FB0718F0888172
:100160008160888341155105E9F0980184E0E13010
:10017000F80718F088818F25888300002F5F3F4F94
:100180002417350798F30EC01093630000936200A4
:100190004115510551F1C8010000019684179507DA
:1001A000D8F323C088818C7F88839401261B370B6A
:1001B000C901880F991F880F991F820F931F880FFD
:1001C000991F820F931F9695879590936500809352
:1001D0006400009709F481CF10C000002F5F3F4FEB
:1001E0002817390708F079CFF8CF88818C7F88836A
:1001F000B0926500A0926400C5019801EECFAA1BE1
:10020000BB1B51E107C0AA1FBB1FA617B70710F001
:10021000A61BB70B881F991F5A95A9F78095909533
:0A022000BC01CD010895F894FFCF52
:00000001FF
